{
  "_format": "hh-sol-artifact-1",
  "contractName": "Bank",
  "sourceName": "contracts/Bank.sol",
  "abi": [
    {
      "inputs": [],
      "stateMutability": "nonpayable",
      "type": "constructor"
    },
    {
      "inputs": [
        {
          "internalType": "address",
          "name": "",
          "type": "address"
        },
        {
          "internalType": "bytes32",
          "name": "",
          "type": "bytes32"
        }
      ],
      "name": "balances",
      "outputs": [
        {
          "internalType": "uint256",
          "name": "",
          "type": "uint256"
        }
      ],
      "stateMutability": "view",
      "type": "function"
    },
    {
      "inputs": [
        {
          "internalType": "uint256",
          "name": "amount",
          "type": "uint256"
        },
        {
          "internalType": "bytes32",
          "name": "symbol",
          "type": "bytes32"
        }
      ],
      "name": "depositTokens",
      "outputs": [],
      "stateMutability": "nonpayable",
      "type": "function"
    },
    {
      "inputs": [
        {
          "internalType": "bytes32",
          "name": "symbol",
          "type": "bytes32"
        }
      ],
      "name": "getTokenBalance",
      "outputs": [
        {
          "internalType": "uint256",
          "name": "",
          "type": "uint256"
        }
      ],
      "stateMutability": "view",
      "type": "function"
    },
    {
      "inputs": [
        {
          "internalType": "bytes32",
          "name": "symbol",
          "type": "bytes32"
        }
      ],
      "name": "getWhitelistedTokenAddress",
      "outputs": [
        {
          "internalType": "address",
          "name": "",
          "type": "address"
        }
      ],
      "stateMutability": "view",
      "type": "function"
    },
    {
      "inputs": [
        {
          "internalType": "uint256",
          "name": "",
          "type": "uint256"
        }
      ],
      "name": "whitelistedSymbols",
      "outputs": [
        {
          "internalType": "bytes32",
          "name": "",
          "type": "bytes32"
        }
      ],
      "stateMutability": "view",
      "type": "function"
    },
    {
      "inputs": [
        {
          "internalType": "bytes32",
          "name": "symbol",
          "type": "bytes32"
        },
        {
          "internalType": "address",
          "name": "tokenAddress",
          "type": "address"
        }
      ],
      "name": "whitelistedToken",
      "outputs": [],
      "stateMutability": "nonpayable",
      "type": "function"
    },
    {
      "inputs": [
        {
          "internalType": "bytes32",
          "name": "",
          "type": "bytes32"
        }
      ],
      "name": "whitelistedTokens",
      "outputs": [
        {
          "internalType": "address",
          "name": "",
          "type": "address"
        }
      ],
      "stateMutability": "view",
      "type": "function"
    },
    {
      "inputs": [
        {
          "internalType": "uint256",
          "name": "amount",
          "type": "uint256"
        }
      ],
      "name": "withdrawEther",
      "outputs": [],
      "stateMutability": "nonpayable",
      "type": "function"
    },
    {
      "inputs": [
        {
          "internalType": "uint256",
          "name": "amount",
          "type": "uint256"
        },
        {
          "internalType": "bytes32",
          "name": "symbol",
          "type": "bytes32"
        }
      ],
      "name": "withdrawTokens",
      "outputs": [],
      "stateMutability": "nonpayable",
      "type": "function"
    },
    {
      "stateMutability": "payable",
      "type": "receive"
    }
  ],
  "bytecode": "0x608060405234801561001057600080fd5b50336000806101000a81548173ffffffffffffffffffffffffffffffffffffffff021916908373ffffffffffffffffffffffffffffffffffffffff160217905550610e0b806100606000396000f3fe60806040526004361061008a5760003560e01c80638f97994b116100595780638f97994b146101fd578063aa3d9a1514610226578063d15b223e14610263578063db04a9ab1461028c578063e8812788146102b557610118565b80631f14df691461011d5780633bed33ce1461015a5780634762b9761461018357806388db6ac6146101c057610118565b366101185734600360003373ffffffffffffffffffffffffffffffffffffffff1673ffffffffffffffffffffffffffffffffffffffff16815260200190815260200160002060007f45746800000000000000000000000000000000000000000000000000000000008152602001908152602001600020600082825461010f9190610c6e565b92505081905550005b600080fd5b34801561012957600080fd5b50610144600480360381019061013f9190610990565b6102f2565b6040516101519190610c42565b60405180910390f35b34801561016657600080fd5b50610181600480360381019061017c9190610a5a565b610317565b005b34801561018f57600080fd5b506101aa60048036038101906101a59190610a5a565b610454565b6040516101b79190610be7565b60405180910390f35b3480156101cc57600080fd5b506101e760048036038101906101e291906109f5565b610478565b6040516101f49190610c42565b60405180910390f35b34801561020957600080fd5b50610224600480360381019061021f9190610a83565b6104d2565b005b34801561023257600080fd5b5061024d600480360381019061024891906109f5565b610691565b60405161025a9190610b6c565b60405180910390f35b34801561026f57600080fd5b5061028a60048036038101906102859190610a83565b6106c4565b005b34801561029857600080fd5b506102b360048036038101906102ae9190610a1e565b6107f2565b005b3480156102c157600080fd5b506102dc60048036038101906102d791906109f5565b6108ff565b6040516102e99190610b6c565b60405180910390f35b6003602052816000526040600020602052806000526040600020600091509150505481565b80600360003373ffffffffffffffffffffffffffffffffffffffff1673ffffffffffffffffffffffffffffffffffffffff16815260200190815260200160002060007f457468000000000000000000000000000000000000000000000000000000000081526020019081526020016000205410156103ca576040517f08c379a00000000000000000000000000000000000000000000000000000000081526004016103c190610c02565b60405180910390fd5b80600360003373ffffffffffffffffffffffffffffffffffffffff1673ffffffffffffffffffffffffffffffffffffffff16815260200190815260200160002060007f45746800000000000000000000000000000000000000000000000000000000008152602001908152602001600020600082825461044a9190610cc4565b9250508190555050565b6001818154811061046457600080fd5b906000526020600020016000915090505481565b6000600360003373ffffffffffffffffffffffffffffffffffffffff1673ffffffffffffffffffffffffffffffffffffffff1681526020019081526020016000206000838152602001908152602001600020549050919050565b81600360003373ffffffffffffffffffffffffffffffffffffffff1673ffffffffffffffffffffffffffffffffffffffff1681526020019081526020016000206000838152602001908152602001600020541015610565576040517f08c379a000000000000000000000000000000000000000000000000000000000815260040161055c90610c02565b60405180910390fd5b81600360003373ffffffffffffffffffffffffffffffffffffffff1673ffffffffffffffffffffffffffffffffffffffff168152602001908152602001600020600083815260200190815260200160002060008282546105c59190610cc4565b925050819055506002600082815260200190815260200160002060009054906101000a900473ffffffffffffffffffffffffffffffffffffffff1673ffffffffffffffffffffffffffffffffffffffff1663a9059cbb33846040518363ffffffff1660e01b815260040161063a929190610bbe565b602060405180830381600087803b15801561065457600080fd5b505af1158015610668573d6000803e3d6000fd5b505050506040513d601f19601f8201168201806040525081019061068c91906109cc565b505050565b60026020528060005260406000206000915054906101000a900473ffffffffffffffffffffffffffffffffffffffff1681565b81600360003373ffffffffffffffffffffffffffffffffffffffff1673ffffffffffffffffffffffffffffffffffffffff168152602001908152602001600020600083815260200190815260200160002060008282546107249190610c6e565b925050819055506002600082815260200190815260200160002060009054906101000a900473ffffffffffffffffffffffffffffffffffffffff1673ffffffffffffffffffffffffffffffffffffffff166323b872dd3330856040518463ffffffff1660e01b815260040161079b93929190610b87565b602060405180830381600087803b1580156107b557600080fd5b505af11580156107c9573d6000803e3d6000fd5b505050506040513d601f19601f820116820180604052508101906107ed91906109cc565b505050565b60008054906101000a900473ffffffffffffffffffffffffffffffffffffffff1673ffffffffffffffffffffffffffffffffffffffff163373ffffffffffffffffffffffffffffffffffffffff1614610880576040517f08c379a000000000000000000000000000000000000000000000000000000000815260040161087790610c22565b60405180910390fd5b6001829080600181540180825580915050600190039060005260206000200160009091909190915055806002600084815260200190815260200160002060006101000a81548173ffffffffffffffffffffffffffffffffffffffff021916908373ffffffffffffffffffffffffffffffffffffffff1602179055505050565b60006002600083815260200190815260200160002060009054906101000a900473ffffffffffffffffffffffffffffffffffffffff169050919050565b60008135905061094b81610d79565b92915050565b60008151905061096081610d90565b92915050565b60008135905061097581610da7565b92915050565b60008135905061098a81610dbe565b92915050565b600080604083850312156109a357600080fd5b60006109b18582860161093c565b92505060206109c285828601610966565b9150509250929050565b6000602082840312156109de57600080fd5b60006109ec84828501610951565b91505092915050565b600060208284031215610a0757600080fd5b6000610a1584828501610966565b91505092915050565b60008060408385031215610a3157600080fd5b6000610a3f85828601610966565b9250506020610a508582860161093c565b9150509250929050565b600060208284031215610a6c57600080fd5b6000610a7a8482850161097b565b91505092915050565b60008060408385031215610a9657600080fd5b6000610aa48582860161097b565b9250506020610ab585828601610966565b9150509250929050565b610ac881610cf8565b82525050565b610ad781610d16565b82525050565b6000610aea601283610c5d565b91507f496e73756666696369656e742066756e647300000000000000000000000000006000830152602082019050919050565b6000610b2a602083610c5d565b91507f4f6e6c79204f776e65722063616e2075736520746869732066756e6374696f6e6000830152602082019050919050565b610b6681610d40565b82525050565b6000602082019050610b816000830184610abf565b92915050565b6000606082019050610b9c6000830186610abf565b610ba96020830185610abf565b610bb66040830184610b5d565b949350505050565b6000604082019050610bd36000830185610abf565b610be06020830184610b5d565b9392505050565b6000602082019050610bfc6000830184610ace565b92915050565b60006020820190508181036000830152610c1b81610add565b9050919050565b60006020820190508181036000830152610c3b81610b1d565b9050919050565b6000602082019050610c576000830184610b5d565b92915050565b600082825260208201905092915050565b6000610c7982610d40565b9150610c8483610d40565b9250827fffffffffffffffffffffffffffffffffffffffffffffffffffffffffffffffff03821115610cb957610cb8610d4a565b5b828201905092915050565b6000610ccf82610d40565b9150610cda83610d40565b925082821015610ced57610cec610d4a565b5b828203905092915050565b6000610d0382610d20565b9050919050565b60008115159050919050565b6000819050919050565b600073ffffffffffffffffffffffffffffffffffffffff82169050919050565b6000819050919050565b7f4e487b7100000000000000000000000000000000000000000000000000000000600052601160045260246000fd5b610d8281610cf8565b8114610d8d57600080fd5b50565b610d9981610d0a565b8114610da457600080fd5b50565b610db081610d16565b8114610dbb57600080fd5b50565b610dc781610d40565b8114610dd257600080fd5b5056fea26469706673582212209abeda166e7e38de850fc92579f0a9e6be6fe16a337cdda0fbfa5e098536e7d964736f6c63430008000033",
  "linkReferences": {},
  "deployedLinkReferences": {}
}